{
  "contractName": "MyElections",
  "abi": [
    {
      "inputs": [],
      "stateMutability": "nonpayable",
      "type": "constructor"
    },
    {
      "inputs": [
        {
          "internalType": "uint256",
          "name": "",
          "type": "uint256"
        }
      ],
      "name": "ballots",
      "outputs": [
        {
          "internalType": "string",
          "name": "",
          "type": "string"
        }
      ],
      "stateMutability": "view",
      "type": "function",
      "constant": true
    },
    {
      "inputs": [],
      "name": "ballotsLen",
      "outputs": [
        {
          "internalType": "uint256",
          "name": "",
          "type": "uint256"
        }
      ],
      "stateMutability": "view",
      "type": "function",
      "constant": true
    },
    {
      "inputs": [
        {
          "internalType": "uint256",
          "name": "",
          "type": "uint256"
        }
      ],
      "name": "candidates",
      "outputs": [
        {
          "internalType": "string",
          "name": "",
          "type": "string"
        }
      ],
      "stateMutability": "view",
      "type": "function",
      "constant": true
    },
    {
      "inputs": [],
      "name": "candidatesLen",
      "outputs": [
        {
          "internalType": "uint256",
          "name": "",
          "type": "uint256"
        }
      ],
      "stateMutability": "view",
      "type": "function",
      "constant": true
    },
    {
      "inputs": [],
      "name": "votingPeriod",
      "outputs": [
        {
          "internalType": "string",
          "name": "",
          "type": "string"
        }
      ],
      "stateMutability": "view",
      "type": "function",
      "constant": true
    },
    {
      "inputs": [
        {
          "internalType": "string",
          "name": "name",
          "type": "string"
        }
      ],
      "name": "AddCandidate",
      "outputs": [],
      "stateMutability": "nonpayable",
      "type": "function"
    },
    {
      "inputs": [],
      "name": "StartVoting",
      "outputs": [
        {
          "internalType": "string",
          "name": "",
          "type": "string"
        }
      ],
      "stateMutability": "nonpayable",
      "type": "function"
    },
    {
      "inputs": [],
      "name": "StopVoting",
      "outputs": [
        {
          "internalType": "string",
          "name": "",
          "type": "string"
        }
      ],
      "stateMutability": "nonpayable",
      "type": "function"
    },
    {
      "inputs": [
        {
          "internalType": "string",
          "name": "ballot",
          "type": "string"
        }
      ],
      "name": "Vote",
      "outputs": [],
      "stateMutability": "nonpayable",
      "type": "function"
    }
  ],
  "bytecode": "0x6080604052600060015560006003556040518060400160405280600481526020017f696e6974000000000000000000000000000000000000000000000000000000008152506004908162000054919062000324565b503480156200006257600080fd5b5033600560006101000a81548173ffffffffffffffffffffffffffffffffffffffff021916908373ffffffffffffffffffffffffffffffffffffffff1602179055506200040b565b600081519050919050565b7f4e487b7100000000000000000000000000000000000000000000000000000000600052604160045260246000fd5b7f4e487b7100000000000000000000000000000000000000000000000000000000600052602260045260246000fd5b600060028204905060018216806200012c57607f821691505b602082108103620001425762000141620000e4565b5b50919050565b60008190508160005260206000209050919050565b60006020601f8301049050919050565b600082821b905092915050565b600060088302620001ac7fffffffffffffffffffffffffffffffffffffffffffffffffffffffffffffffff826200016d565b620001b886836200016d565b95508019841693508086168417925050509392505050565b6000819050919050565b6000819050919050565b600062000205620001ff620001f984620001d0565b620001da565b620001d0565b9050919050565b6000819050919050565b6200022183620001e4565b6200023962000230826200020c565b8484546200017a565b825550505050565b600090565b6200025062000241565b6200025d81848462000216565b505050565b5b8181101562000285576200027960008262000246565b60018101905062000263565b5050565b601f821115620002d4576200029e8162000148565b620002a9846200015d565b81016020851015620002b9578190505b620002d1620002c8856200015d565b83018262000262565b50505b505050565b600082821c905092915050565b6000620002f960001984600802620002d9565b1980831691505092915050565b6000620003148383620002e6565b9150826002028217905092915050565b6200032f82620000aa565b67ffffffffffffffff8111156200034b576200034a620000b5565b5b62000357825462000113565b6200036482828562000289565b600060209050601f8311600181146200039c576000841562000387578287015190505b62000393858262000306565b86555062000403565b601f198416620003ac8662000148565b60005b82811015620003d657848901518255600182019150602085019450602081019050620003af565b86831015620003f65784890151620003f2601f891682620002e6565b8355505b6001600288020188555050505b505050505050565b6113e3806200041b6000396000f3fe608060405234801561001057600080fd5b50600436106100935760003560e01c80635c632b38116100665780635c632b38146101205780637a99c0a6146101505780637e54b8e21461016e578063ea5168a01461018a578063f656c339146101a857610093565b806302a251a314610098578063323082d7146100b65780633477ee2e146100d257806336f49cd714610102575b600080fd5b6100a06101c6565b6040516100ad9190610a8e565b60405180910390f35b6100d060048036038101906100cb9190610bf9565b610254565b005b6100ec60048036038101906100e79190610c78565b610375565b6040516100f99190610a8e565b60405180910390f35b61010a610421565b6040516101179190610a8e565b60405180910390f35b61013a60048036038101906101359190610c78565b6105db565b6040516101479190610a8e565b60405180910390f35b610158610687565b6040516101659190610a8e565b60405180910390f35b61018860048036038101906101839190610bf9565b610841565b005b6101926109f2565b60405161019f9190610cb4565b60405180910390f35b6101b06109f8565b6040516101bd9190610cb4565b60405180910390f35b600480546101d390610cfe565b80601f01602080910402602001604051908101604052809291908181526020018280546101ff90610cfe565b801561024c5780601f106102215761010080835404028352916020019161024c565b820191906000526020600020905b81548152906001019060200180831161022f57829003601f168201915b505050505081565b6000815103610298576040517f08c379a000000000000000000000000000000000000000000000000000000000815260040161028f90610d7b565b60405180910390fd5b60046040516020016102aa9190610e3e565b604051602081830303815290604052805190602001206040516020016102cf90610ea1565b6040516020818303038152906040528051906020012014610325576040517f08c379a000000000000000000000000000000000000000000000000000000000815260040161031c90610f28565b60405180910390fd5b60028190806001815401808255809150506001900390600052602060002001600090919091909150908161035991906110df565b506003600081548092919061036d906111e0565b919050555050565b6000818154811061038557600080fd5b9060005260206000200160009150905080546103a090610cfe565b80601f01602080910402602001604051908101604052809291908181526020018280546103cc90610cfe565b80156104195780601f106103ee57610100808354040283529160200191610419565b820191906000526020600020905b8154815290600101906020018083116103fc57829003601f168201915b505050505081565b6060600560009054906101000a900473ffffffffffffffffffffffffffffffffffffffff1673ffffffffffffffffffffffffffffffffffffffff163373ffffffffffffffffffffffffffffffffffffffff16146104b3576040517f08c379a00000000000000000000000000000000000000000000000000000000081526004016104aa9061129a565b60405180910390fd5b60046040516020016104c59190610e3e565b604051602081830303815290604052805190602001206040516020016104ea90610ea1565b604051602081830303815290604052805190602001200361054b576040518060400160405280600b81526020017f64656163746976617465640000000000000000000000000000000000000000008152506004908161054991906110df565b505b6004805461055890610cfe565b80601f016020809104026020016040519081016040528092919081815260200182805461058490610cfe565b80156105d15780601f106105a6576101008083540402835291602001916105d1565b820191906000526020600020905b8154815290600101906020018083116105b457829003601f168201915b5050505050905090565b600281815481106105eb57600080fd5b90600052602060002001600091509050805461060690610cfe565b80601f016020809104026020016040519081016040528092919081815260200182805461063290610cfe565b801561067f5780601f106106545761010080835404028352916020019161067f565b820191906000526020600020905b81548152906001019060200180831161066257829003601f168201915b505050505081565b6060600560009054906101000a900473ffffffffffffffffffffffffffffffffffffffff1673ffffffffffffffffffffffffffffffffffffffff163373ffffffffffffffffffffffffffffffffffffffff1614610719576040517f08c379a00000000000000000000000000000000000000000000000000000000081526004016107109061129a565b60405180910390fd5b600460405160200161072b9190610e3e565b6040516020818303038152906040528051906020012060405160200161075090611306565b60405160208183030381529060405280519060200120036107b1576040518060400160405280600681526020017f6163746976650000000000000000000000000000000000000000000000000000815250600490816107af91906110df565b505b600480546107be90610cfe565b80601f01602080910402602001604051908101604052809291908181526020018280546107ea90610cfe565b80156108375780601f1061080c57610100808354040283529160200191610837565b820191906000526020600020905b81548152906001019060200180831161081a57829003601f168201915b5050505050905090565b600560009054906101000a900473ffffffffffffffffffffffffffffffffffffffff1673ffffffffffffffffffffffffffffffffffffffff163373ffffffffffffffffffffffffffffffffffffffff16146108d1576040517f08c379a00000000000000000000000000000000000000000000000000000000081526004016108c89061129a565b60405180910390fd5b6000815103610915576040517f08c379a000000000000000000000000000000000000000000000000000000000815260040161090c90610d7b565b60405180910390fd5b60046040516020016109279190610e3e565b6040516020818303038152906040528051906020012060405160200161094c90611306565b60405160208183030381529060405280519060200120146109a2576040517f08c379a00000000000000000000000000000000000000000000000000000000081526004016109999061138d565b60405180910390fd5b6000819080600181540180825580915050600190039060005260206000200160009091909190915090816109d691906110df565b50600160008154809291906109ea906111e0565b919050555050565b60035481565b60015481565b600081519050919050565b600082825260208201905092915050565b60005b83811015610a38578082015181840152602081019050610a1d565b60008484015250505050565b6000601f19601f8301169050919050565b6000610a60826109fe565b610a6a8185610a09565b9350610a7a818560208601610a1a565b610a8381610a44565b840191505092915050565b60006020820190508181036000830152610aa88184610a55565b905092915050565b6000604051905090565b600080fd5b600080fd5b600080fd5b600080fd5b7f4e487b7100000000000000000000000000000000000000000000000000000000600052604160045260246000fd5b610b0682610a44565b810181811067ffffffffffffffff82111715610b2557610b24610ace565b5b80604052505050565b6000610b38610ab0565b9050610b448282610afd565b919050565b600067ffffffffffffffff821115610b6457610b63610ace565b5b610b6d82610a44565b9050602081019050919050565b82818337600083830152505050565b6000610b9c610b9784610b49565b610b2e565b905082815260208101848484011115610bb857610bb7610ac9565b5b610bc3848285610b7a565b509392505050565b600082601f830112610be057610bdf610ac4565b5b8135610bf0848260208601610b89565b91505092915050565b600060208284031215610c0f57610c0e610aba565b5b600082013567ffffffffffffffff811115610c2d57610c2c610abf565b5b610c3984828501610bcb565b91505092915050565b6000819050919050565b610c5581610c42565b8114610c6057600080fd5b50565b600081359050610c7281610c4c565b92915050565b600060208284031215610c8e57610c8d610aba565b5b6000610c9c84828501610c63565b91505092915050565b610cae81610c42565b82525050565b6000602082019050610cc96000830184610ca5565b92915050565b7f4e487b7100000000000000000000000000000000000000000000000000000000600052602260045260246000fd5b60006002820490506001821680610d1657607f821691505b602082108103610d2957610d28610ccf565b5b50919050565b7f4c656e6774682063616e6e6f7420626520657175616c20746f20302100000000600082015250565b6000610d65601c83610a09565b9150610d7082610d2f565b602082019050919050565b60006020820190508181036000830152610d9481610d58565b9050919050565b600081905092915050565b60008190508160005260206000209050919050565b60008154610dc881610cfe565b610dd28186610d9b565b94506001821660008114610ded5760018114610e0257610e35565b60ff1983168652811515820286019350610e35565b610e0b85610da6565b60005b83811015610e2d57815481890152600182019150602081019050610e0e565b838801955050505b50505092915050565b6000610e4a8284610dbb565b915081905092915050565b7f6163746976650000000000000000000000000000000000000000000000000000600082015250565b6000610e8b600683610d9b565b9150610e9682610e55565b600682019050919050565b6000610eac82610e7e565b9150819050919050565b7f546f20566f746520766f74696e67506572696f642073686f756c64206265206960008201527f6e20616374697665207374617465210000000000000000000000000000000000602082015250565b6000610f12602f83610a09565b9150610f1d82610eb6565b604082019050919050565b60006020820190508181036000830152610f4181610f05565b9050919050565b60006020601f8301049050919050565b600082821b905092915050565b600060088302610f957fffffffffffffffffffffffffffffffffffffffffffffffffffffffffffffffff82610f58565b610f9f8683610f58565b95508019841693508086168417925050509392505050565b6000819050919050565b6000610fdc610fd7610fd284610c42565b610fb7565b610c42565b9050919050565b6000819050919050565b610ff683610fc1565b61100a61100282610fe3565b848454610f65565b825550505050565b600090565b61101f611012565b61102a818484610fed565b505050565b5b8181101561104e57611043600082611017565b600181019050611030565b5050565b601f8211156110935761106481610da6565b61106d84610f48565b8101602085101561107c578190505b61109061108885610f48565b83018261102f565b50505b505050565b600082821c905092915050565b60006110b660001984600802611098565b1980831691505092915050565b60006110cf83836110a5565b9150826002028217905092915050565b6110e8826109fe565b67ffffffffffffffff81111561110157611100610ace565b5b61110b8254610cfe565b611116828285611052565b600060209050601f8311600181146111495760008415611137578287015190505b61114185826110c3565b8655506111a9565b601f19841661115786610da6565b60005b8281101561117f5784890151825560018201915060208501945060208101905061115a565b8683101561119c5784890151611198601f8916826110a5565b8355505b6001600288020188555050505b505050505050565b7f4e487b7100000000000000000000000000000000000000000000000000000000600052601160045260246000fd5b60006111eb82610c42565b91507fffffffffffffffffffffffffffffffffffffffffffffffffffffffffffffffff820361121d5761121c6111b1565b5b600182019050919050565b7f4f6e6c7920746865206f776e65722063616e20706572666f726d20746869732060008201527f616374696f6e0000000000000000000000000000000000000000000000000000602082015250565b6000611284602683610a09565b915061128f82611228565b604082019050919050565b600060208201905081810360008301526112b381611277565b9050919050565b7f696e697400000000000000000000000000000000000000000000000000000000600082015250565b60006112f0600483610d9b565b91506112fb826112ba565b600482019050919050565b6000611311826112e3565b9150819050919050565b7f546f204164642043616e64696461746520766f74696e67506572696f6420736860008201527f6f756c6420626520696e20696e69742073746174652100000000000000000000602082015250565b6000611377603683610a09565b91506113828261131b565b604082019050919050565b600060208201905081810360008301526113a68161136a565b905091905056fea26469706673582212201e0f319ff0727489bc328bcd977176f828e36c7365df995ae23a0563b321ef3664736f6c63430008130033",
  "immutableReferences": {},
  "source": "// SPDX-License-Identifier: MIT\r\npragma solidity ^0.8.19;\r\n\r\ncontract MyElections {\r\n    // Array to store the names of candidates\r\n    string[] public candidates;\r\n    // Variable to keep track of the number of candidates\r\n    uint256 public candidatesLen = 0;\r\n    // Array to store the ballots (votes)\r\n    string[] public ballots;\r\n    // Variable to keep track of the number of ballots\r\n    uint256 public ballotsLen = 0;\r\n    // Variable to represent the current voting period state\r\n    // Possible states: \"init\", \"active\", \"deactivated\"\r\n    string public votingPeriod = \"init\";\r\n    // Address of the contract owner\r\n    address owner;\r\n\r\n    // Constructor sets the deployer as the owner\r\n    constructor() {\r\n        owner = msg.sender;\r\n    }\r\n\r\n    // Modifier to restrict function access to the owner only\r\n    modifier onlyOwner() {\r\n        require(msg.sender == owner, \"Only the owner can perform this action\");\r\n        _;\r\n    }\r\n\r\n    // Adds a new candidate to the election\r\n    // @param name The name of the candidate to add\r\n    function AddCandidate(string memory name) public onlyOwner {\r\n        require(bytes(name).length != 0, \"Length cannot be equal to 0!\");\r\n        require(keccak256(abi.encodePacked(\"init\")) == keccak256(abi.encodePacked(votingPeriod)), \"To Add Candidate votingPeriod should be in init state!\");\r\n        candidates.push(name);\r\n        candidatesLen++;\r\n    }\r\n\r\n    // Starts the voting period, changing its state to \"active\"\r\n    // @return The new state of the voting period\r\n    function StartVoting() public onlyOwner returns (string memory) {\r\n        if (keccak256(abi.encodePacked(\"init\")) == keccak256(abi.encodePacked(votingPeriod))) {\r\n            votingPeriod = \"active\";\r\n        }\r\n        return votingPeriod;\r\n    }\r\n\r\n    //  Stops the voting period, changing its state to \"deactivated\"\r\n    // @return The new state of the voting period\r\n    function StopVoting() public onlyOwner returns (string memory) {\r\n        if (keccak256(abi.encodePacked(\"active\")) == keccak256(abi.encodePacked(votingPeriod))) {\r\n            votingPeriod = \"deactivated\";\r\n        }\r\n        return votingPeriod;\r\n    }\r\n\r\n    // Allows a user to cast a vote (ballot)\r\n    // @param ballot The name of the candidate being voted for\r\n    function Vote(string memory ballot) public {\r\n        require(bytes(ballot).length != 0, \"Length cannot be equal to 0!\");\r\n        require(keccak256(abi.encodePacked(\"active\")) == keccak256(abi.encodePacked(votingPeriod)), \"To Vote votingPeriod should be in active state!\");\r\n        ballots.push(ballot);\r\n        ballotsLen++;\r\n    }\r\n}\r\n",
  "sourcePath": "C:\\NextCloud-Lampros\\Documents\\University\\Epsilon College\\Diplomatiki\\code\\Application\\AppContract\\contracts\\contract.sol",
  "compiler": {
    "name": "solc",
    "version": "0.8.19+commit.7dd6d404.Emscripten.clang"
  },
  "schemaVersion": "3.4.16",
  "updatedAt": "2024-10-13T16:23:34.923Z",
  "networkType": "ethereum",
  "devdoc": {
    "kind": "dev",
    "methods": {},
    "version": 1
  },
  "userdoc": {
    "kind": "user",
    "methods": {},
    "version": 1
  }
}